:020000040800F2
:100000000050002065360008BD310008C3310008EB
:10001000C9310008CF310008D531000800000000C8
:10002000000000000000000000000000DB310008BC
:10003000E731000800000000F3310008FF3100083C
:10004000AD360008AD360008AD360008AD36000804
:10005000AD360008AD360008AD360008AD360008F4
:10006000AD360008AD360008AD360008AD360008E4
:10007000AD360008AD360008AD360008AD360008D4
:10008000AD360008AD360008AD360008AD360008C4
:10009000AD360008AD360008AD360008AD360008B4
:1000A000AD360008AD360008AD360008AD360008A4
:1000B0000D320008AD360008AD360008AD36000838
:1000C000AD360008AD360008AD360008AD36000884
:1000D000AD360008AD360008AD360008AD36000874
:1000E00021320008AD360008AD36000800000000DF
:1000F0000000000000000000000000000000000000
:0C01000000000000000000005FF808F1A3
:1001100010B5054C237833B9044B13B10448AFF341
:1001200000800123237010BD500200200000000059
:100130001898000808B5034B1BB103490348AFF3F7
:10014000008008BD0000000054020020189800083C
:10015000034613F8012B002AFBD1181A0138704707
:1001600081F0004102E000BF83F0004330B54FEA68
:1001700041044FEA430594EA050F08BF90EA020FD5
:100180001FBF54EA000C55EA020C7FEA645C7FEA68
:10019000655C00F0E2804FEA5454D4EB5555B8BF8B
:1001A0006D420CDD2C4480EA020281EA030382EAFC
:1001B000000083EA010180EA020281EA0303362D8E
:1001C00088BF30BD11F0004F4FEA01314FF4801C61
:1001D0004CEA113102D0404261EB410113F0004F73
:1001E0004FEA03334CEA133302D0524263EB43032A
:1001F00094EA050F00F0A780A4F10104D5F1200EC8
:100200000DDB02FA0EFC22FA05F2801841F1000122
:1002100003FA0EF2801843FA05F359410EE0A5F1F6
:1002200020050EF1200E012A03FA0EFC28BF4CF027
:10023000020C43FA05F3C01851EBE37101F00045DD
:1002400007D54FF0000EDCF1000C7EEB00006EEBEA
:100250000101B1F5801F1BD3B1F5001F0CD3490874
:100260005FEA30004FEA3C0C04F101044FEA4452CB
:1002700012F5800F80F09A80BCF1004F08BF5FEA52
:10028000500C50F1000041EB045141EA050130BD32
:100290005FEA4C0C404141EB0101013C28BFB1F544
:1002A000801FE9D291F0000F04BF01460020B1FA8F
:1002B00081F308BF2033A3F10B03B3F120020CDA62
:1002C0000C3208DD02F1140CC2F10C0201FA0CF040
:1002D00021FA02F10CE002F11402D8BFC2F1200CA5
:1002E00001FA02F120FA0CFCDCBF41EA0C0190405B
:1002F000E41AA2BF01EB0451294330BD6FEA0404A4
:100300001F3C1CDA0C340EDC04F11404C4F120028E
:1003100020FA04F001FA02F340EA030021FA04F3A0
:1003200045EA030130BDC4F10C04C4F1200220FAF7
:1003300002F001FA04F340EA0300294630BD21FA35
:1003400004F0294630BD94F0000F83F4801306BFFB
:1003500081F480110134013D4EE77FEA645C18BFEF
:100360007FEA655C29D094EA050F08BF90EA020F86
:1003700005D054EA000C04BF1946104630BD91EA7E
:10038000030F1EBF0021002030BD5FEA545C05D181
:100390004000494128BF41F0004130BD14F58004C0
:1003A0003CBF01F5801130BD01F0004545F0FE4134
:1003B00041F470014FF0000030BD7FEA645C1ABF69
:1003C000194610467FEA655C1CBF0B46024650EAA0
:1003D000013406BF52EA033591EA030F41F40021CC
:1003E00030BD00BF90F0000F04BF0021704730B552
:1003F0004FF4806404F132044FF000054FF0000127
:1004000050E700BF90F0000F04BF0021704730B5E7
:100410004FF4806404F1320410F0004548BF4042BC
:100420004FF000013EE700BF42004FEAE2014FEA11
:1004300031014FEA02701FBF12F07F4393F07F4FEC
:1004400081F06051704732F07F4208BF704793F0EF
:100450007F4F04BF41F40021704730B54FF4607402
:1004600001F0004521F000411CE700BF50EA010205
:1004700008BF704730B54FF000050AE050EA0102AE
:1004800008BF704730B511F0004502D5404261EB1E
:1004900041014FF4806404F132045FEA915C3FF45F
:1004A000D8AE4FF003025FEADC0C18BF03325FEAFC
:1004B000DC0C18BF033202EBDC02C2F1200300FAAD
:1004C00003FC20FA02F001FA03FE40EA0E0021FAD2
:1004D00002F11444BDE600BF70B54FF0FF0C4CF4C0
:1004E000E06C1CEA11541DBF1CEA135594EA0C0F72
:1004F00095EA0C0F00F0DEF82C4481EA030621EAAD
:100500004C5123EA4C5350EA013518BF52EA0335E7
:1005100041F4801143F4801338D0A0FB02CE4FF099
:100520000005E1FB02E506F00042E0FB03E54FF0C9
:100530000006E1FB03569CF0000F18BF4EF0010EC1
:10054000A4F1FF04B6F5007F64F5407404D25FEABD
:100550004E0E6D4146EB060642EAC62141EA555170
:100560004FEAC52040EA5E504FEACE2EB4F1FD0CB2
:1005700088BFBCF5E06F1ED8BEF1004F08BF5FEA30
:10058000500E50F1000041EB045170BD06F00046E2
:1005900046EA010140EA020081EA0301B4EB5C048F
:1005A000C2BFD4EB0C0541EA045170BD41F4801187
:1005B0004FF0000E013C00F3AB8014F1360FDEBFAC
:1005C000002001F0004170BDC4F10004203C35DA88
:1005D0000C341BDC04F11404C4F1200500FA05F30B
:1005E00020FA04F001FA05F240EA020001F00042AC
:1005F00021F0004110EBD37021FA04F642EB060122
:100600005EEA430E08BF20EAD37070BDC4F10C044B
:10061000C4F1200500FA04F320FA05F001FA04F20F
:1006200040EA020001F0004110EBD37041F10001FB
:100630005EEA430E08BF20EAD37070BDC4F1200506
:1006400000FA05F24EEA020E20FA04F301FA05F26E
:1006500043EA020321FA04F001F0004121FA04F216
:1006600020EA020000EBD3705EEA430E08BF20EAE6
:10067000D37070BD94F0000F0FD101F00046400020
:1006800041EB010111F4801F08BF013CF7D041EAA2
:10069000060195F0000F18BF704703F000465200A6
:1006A00043EB030313F4801F08BF013DF7D043EA77
:1006B0000603704794EA0C0F0CEA135518BF95EA2D
:1006C0000C0F0CD050EA410618BF52EA4306D1D1B4
:1006D00081EA030101F000414FF0000070BD50EAD3
:1006E000410606BF1046194652EA430619D094EA5D
:1006F0000C0F02D150EA013613D195EA0C0F05D147
:1007000052EA03361CBF104619460AD181EA03019A
:1007100001F0004141F0FE4141F470014FF0000052
:1007200070BD41F0FE4141F4780170BD70B54FF0ED
:10073000FF0C4CF4E06C1CEA11541DBF1CEA13556D
:1007400094EA0C0F95EA0C0F00F0A7F8A4EB05044F
:1007500081EA030E52EA03354FEA013100F0888046
:100760004FEA03334FF0805545EA131343EA12630F
:100770004FEA022245EA111545EA10654FEA0026C4
:100780000EF000419D4208BF964244F1FD0404F57D
:10079000407402D25B084FEA3202B61A65EB0305D9
:1007A0005B084FEA32024FF480104FF4002CB6EB96
:1007B000020E75EB030E22BFB61A754640EA0C0016
:1007C0005B084FEA3202B6EB020E75EB030E22BF56
:1007D000B61A754640EA5C005B084FEA3202B6EB97
:1007E000020E75EB030E22BFB61A754640EA9C0056
:1007F0005B084FEA3202B6EB020E75EB030E22BF26
:10080000B61A754640EADC0055EA060E18D04FEAE3
:10081000051545EA16754FEA06164FEAC30343EA83
:1008200052734FEAC2025FEA1C1CC0D111F4801F50
:100830000BD141EA00014FF000004FF0004CB6E749
:1008400011F4801F04BF01430020B4F1FD0C88BFE8
:10085000BCF5E06F3FF6AFAEB5EB030C04BFB6EBF3
:10086000020C5FEA500C50F1000041EB045170BDE6
:100870000EF0004E4EEA113114EB5C04C2BFD4EB13
:100880000C0541EA045170BD41F480114FF0000E97
:10089000013C90E645EA060E8DE60CEA135594EA13
:1008A0000C0F08BF95EA0C0F3FF43BAF94EA0C0F16
:1008B0000AD150EA01347FF434AF95EA0C0F7FF48B
:1008C00025AF104619462CE795EA0C0F06D152EADF
:1008D00003353FF4FDAE1046194622E750EA4106C3
:1008E00018BF52EA43067FF4C5AE50EA41047FF4D4
:1008F0000DAF52EA43057FF4EBAE12E74FF0FF3C39
:1009000006E000BF4FF0010C02E000BF4FF0010C09
:100910004DF804CD4FEA410C7FEA6C5C4FEA430C82
:1009200018BF7FEA6C5C1BD001B050EA410C0CBFD1
:1009300052EA430C91EA030F02BF90EA020F002033
:10094000704710F1000F91EA030F58BF994208BF9A
:1009500090422CBFD8176FEAE37040F00100704757
:100960004FEA410C7FEA6C5C02D150EA013C07D1AE
:100970004FEA430C7FEA6C5CD6D152EA033CD3D0F9
:100980005DF8040B704700BF8446104662468C46F3
:100990001946634600E000BF01B5FFF7B7FF002826
:1009A00048BF10F1000F01BD4DF808EDFFF7F4FF4F
:1009B0000CBF012000205DF808FB00BF4DF808EDDA
:1009C000FFF7EAFF34BF012000205DF808FB00BFFD
:1009D0004DF808EDFFF7E0FF94BF012000205DF81F
:1009E00008FB00BF4DF808EDFFF7CEFF94BF0120D4
:1009F00000205DF808FB00BF4DF808EDFFF7C4FFCD
:100A000034BF012000205DF808FB00BF4FEA410C15
:100A10007FEA6C5C02D150EA013C0AD14FEA430CF8
:100A20007FEA6C5C02D152EA033C02D14FF0000035
:100A300070474FF0010070474FEA410212F5001273
:100A400015D211D56FF47873B3EB625212D94FEA15
:100A5000C12343F0004343EA505311F0004F23FAFF
:100A600002F018BF404270474FF00000704750EA54
:100A7000013005D111F0004008BF6FF00040704711
:100A80004FF00000704700BF80F0004002E000BF60
:100A900081F0004142001FBF5FEA410392EA030F69
:100AA0007FEA226C7FEA236C6AD04FEA1262D2EBB3
:100AB0001363C1BFD218414048404140B8BF5B42B8
:100AC000192B88BF704710F0004F40F4000020F051
:100AD0007F4018BF404211F0004F41F4000121F067
:100AE0007F4118BF494292EA030F3FD0A2F10102B1
:100AF00041FA03FC10EB0C00C3F1200301FA03F1EF
:100B000000F0004302D5494260EB4000B0F5000F11
:100B100013D3B0F1807F06D340084FEA310102F1D0
:100B20000102FE2A51D2B1F1004F40EBC25008BF82
:100B300020F0010040EA03007047490040EB00004C
:100B4000013A28BFB0F5000FEDD2B0FA80FCACF14D
:100B5000080CB2EB0C0200FA0CF0AABF00EBC2507A
:100B600052421843BCBFD0401843704792F0000F68
:100B700081F4000106BF80F400000132013BB5E7BB
:100B80004FEA41037FEA226C18BF7FEA236C21D031
:100B900092EA030F04D092F0000F08BF0846704796
:100BA00090EA010F1CBF0020704712F07F4F04D164
:100BB000400028BF40F00040704712F100723CBF77
:100BC00000F50000704700F0004343F0FE4040F4A1
:100BD000000070477FEA226216BF08467FEA23635F
:100BE0000146420206BF5FEA412390EA010F40F44A
:100BF000800070474FF0000304E000BF10F0004396
:100C000048BF40425FEA000C08BF704743F096437C
:100C100001464FF000001CE050EA010208BF704797
:100C20004FF000030AE000BF50EA010208BF70471E
:100C300011F0004302D5404261EB41015FEA010C33
:100C400002BF84460146002043F0B64308BFA3F12B
:100C50008053A3F50003BCFA8CF2083AA3EBC2530D
:100C600010DB01FA02FC634400FA02FCC2F120022C
:100C7000BCF1004F20FA02F243EB020008BF20F063
:100C80000100704702F1200201FA02FCC2F12002C9
:100C900050EA4C0021FA02F243EB020008BF20EABE
:100CA000DC7070474FF0FF0C1CEAD0521EBF1CEAEC
:100CB000D15392EA0C0F93EA0C0F6FD01A4480EADA
:100CC000010C400218BF5FEA41211ED04FF00063C3
:100CD00043EA501043EA5111A0FB01310CF00040EF
:100CE000B1F5000F3EBF490041EAD3715B0040EA15
:100CF000010062F17F02FD2A1DD8B3F1004F40EBE5
:100D0000C25008BF20F00100704790F0000F0CF0B7
:100D1000004C08BF49024CEA502040EA51207F3A7B
:100D2000C2BFD2F1FF0340EAC250704740F4000056
:100D30004FF00003013A5DDC12F1190FDCBF00F047
:100D400000407047C2F10002410021FA02F1C2F1F5
:100D5000200200FA02FC5FEA310040F1000053EA91
:100D60004C0308BF20EADC70704792F0000F00F0DF
:100D7000004C02BF400010F4000F013AF9D040EAE5
:100D80000C0093F0000F01F0004C02BF490011F479
:100D9000000F013BF9D041EA0C018FE70CEAD15377
:100DA00092EA0C0F18BF93EA0C0F0AD030F0004CF7
:100DB00018BF31F0004CD8D180EA010000F00040AB
:100DC000704790F0000F17BF90F0004F084691F069
:100DD000000F91F0004F14D092EA0C0F01D14202A3
:100DE0000FD193EA0C0F03D14B0218BF084608D16C
:100DF00080EA010000F0004040F0FE4040F40000B6
:100E0000704740F0FE4040F4400070474FF0FF0C48
:100E10001CEAD0521EBF1CEAD15392EA0C0F93EA8F
:100E20000C0F69D0A2EB030280EA010C49024FEAE1
:100E3000402037D04FF0805343EA111143EA10139A
:100E40000CF000408B4238BF5B0042F17D024FF452
:100E5000000C8B4224BF5B1A40EA0C00B3EB510F2D
:100E600024BFA3EB510340EA5C00B3EB910F24BF16
:100E7000A3EB910340EA9C00B3EBD10F24BFA3EB9B
:100E8000D10340EADC001B0118BF5FEA1C1CE0D163
:100E9000FD2A3FF650AF8B4240EBC25008BF20F016
:100EA000010070470CF0004C4CEA50207F32C2BF6A
:100EB000D2F1FF0340EAC250704740F400004FF007
:100EC0000003013A37E792F0000F00F0004C02BF38
:100ED000400010F4000F013AF9D040EA0C0093F002
:100EE000000F01F0004C02BF490011F4000F013B5C
:100EF000F9D041EA0C0195E70CEAD15392EA0C0FC4
:100F000008D142027FF47DAF93EA0C0F7FF470AFFB
:100F1000084676E793EA0C0F04D14B023FF44CAF3E
:100F200008466EE730F0004C18BF31F0004CCAD1D3
:100F300030F000427FF45CAF31F000437FF43CAF0F
:100F40005FE700BF80B483B000AF7860064A7B687B
:100F500052F82330012B01D1012300E00023184671
:100F60000C37BD4680BC70476C02002080B582B053
:100F700000AF00237B6012E0584A7B6852F82320C0
:100F800057497B6841F82320564A7B6852F8232052
:100F900052497B6841F823207B6801337B607B6882
:100FA000032BE9DD4FF480614F4802F099FE0346C0
:100FB0001A464C4B1A604FF480714C4802F090FE78
:100FC00003461A46474B5A604FF40071474802F0F7
:100FD00087FE03461A46434B9A6000233B6075E048
:100FE0003E4A3B6852F823203E493B6851F8233083
:100FF0009A4268D13A4A3B6852F8232037493B6805
:1010000051F823309A425ED1354A3B6852F823208A
:1010100037493B6851F823309A4217D0304A3B6831
:1010200052F8232032493B6841F82320304A3B687C
:1010300052F82330002B21D12E4B4FF4FA721A6054
:101040002D4A3B68012142F8231017E0294B1B6809
:10105000013B284A1360274B1B68002B0ED1254B00
:101060004FF4FA721A60224A3B6852F82330002B80
:1010700004D1214A3B68012142F823101C4A3B68F5
:1010800052F82330002B19D11C4A3B6852F8233008
:101090005A1C1A493B6841F82320184A3B6852F809
:1010A0002330C72B0FDD144A3B68012142F823107F
:1010B000124A3B68AA2142F8231004E00F4A3B6819
:1010C000002142F823103B6801333B603B68032B4F
:1010D00086DD00BF00BF0837BD4680BD1000002080
:1010E0002000002000000020000C0140000801400A
:1010F00030000020400000206C0200207C02002014
:1011000080B485B000AF78600B46FB70FF23FB73A3
:101110000023BB7322E07B681A78FB7B5340FB7390
:1011200000237B7311E097F90F30002B07DAFB7B6C
:101130005B005BB283F031035BB2FB7302E0FB7BCD
:101140005B00FB737B7B01337B737B7B072BEAD9D3
:101150007B6801337B60BB7B0133BB73BA7BFB785D
:101160009A42D8D3FB7B18461437BD4680BC7047E3
:1011700080B588B004AF0346FB710023FB730023E6
:10118000BB73FB799AB2642302930123019307F1A5
:101190000E03009301237021074803F0A1FA0346D0
:1011A000FB73FB79BA7B1946044806F0E7F8BB7B72
:1011B00018461037BD4680BD040300203098000853
:1011C00080B58AB002AF0023FB77642002F0D2FA28
:1011D0007120FFF7CDFF0346FB75FB7D03F018037D
:1011E000182B40F0B9800A2002F0C4FAAC233B73FC
:1011F00033237B730023BB7307F10C02642300933A
:1012000003237021584802F001FF502002F0B2FA87
:1012100000233B613A1D6423009307237021524849
:1012200002F0F2FF0023BB610BE03A1DBB691344DF
:101230001B781A46B9694D4806F0A0F8BB6901331E
:10124000BB61BB69062BF0DD3B795BB2002B79DB20
:101250003B1D06211846FFF753FF03461A46BB7A8B
:101260009A4269D1424806F00FF97B793B613B69AC
:101270001B023B61BB791A463B6913443B613B69E6
:101280001B023B61FB791A463B6913443B613B6996
:101290001B093B613869FFF7ADFC03463549184629
:1012A000FFF700FD03464FF093411846FFF7AEFDF0
:1012B00003461A46304B1A602F4B1B681846FFF73F
:1012C000B3F802460B462D4806F058F8FB7903F0B8
:1012D0000F033B613B691B023B613B7A1A463B694A
:1012E00013443B613B691B023B617B7A1A463B69B5
:1012F00013443B613869FFF77DFC034620491846DB
:10130000FFF7D0FC03464FF093411846FFF77EFDF0
:1013100003461C491846FFF7BBFB03461A461A4B07
:101320001A60194B1B681846FFF77EF802460B46F9
:10133000164806F023F811E0154806F0A5F8022338
:10134000FB770BE03B7903F080031946114806F068
:1013500015F80323FB7701E00123FB77FB7F184699
:101360002037BD4680BD00BF040300204C98000814
:10137000609800080000C8428C02002068980008AD
:10138000000048430000484290020020789800087E
:10139000889800089498000880B592B000AFBB4BC5
:1013A0001B68082B00F2C18201A252F823F000BF93
:1013B000D51300082B1900082B1900082B19000859
:1013C0002B190008131400084F150008C116000857
:1013D000FD170008AD4B05221A6040F6B831012018
:1013E00001F0ECFF6421002001F0E8FF01F05EF95C
:1013F00001F09FF902F026F8A54B1B68A54A13607F
:10140000A54B1B68A54A1360A54B1B68A54A136032
:1014100094E202F033F8A44B1B68002B4CD09D4B98
:101420001B68013B9B4A13609E4B1B68013B9D4A16
:1014300013600121002001F086F9964B1B68092BEF
:1014400008DC944B1A6807F130039849184606F0F7
:1014500067F807E08F4B1A6807F130039449184684
:1014600006F05EF807F13003184601F04DF900214F
:10147000012001F068F98B4B1B68092B08DC894BB4
:101480001A6807F130038B49184606F049F807E05F
:10149000844B1A6807F130038749184606F040F874
:1014A00007F13003184601F02FF902F057F84FF416
:1014B0007A71002001F082FF7B4B5B68002B11D01A
:1014C000724B06221A6001F0BDFF02F047F8734B21
:1014D0001B684FF47A7202FB03F33B64396C012002
:1014E00001F06CFF0120FFF72DFD0346002B17D004
:1014F000664B09221A604FF47A71012001F05EFFF9
:1015000001F0A0FF634B0A221A60664B0A221A60A0
:101510006A4B00225A604FF47A71002001F04EFFAE
:101520000020FFF70FFD0346002B00F0008201F0C2
:1015300000F9564B02221A6001F084FF4FF47A71D1
:10154000002001F03BFF5D4B00221A60EFE101F04B
:10155000B1FF554B1B68002B4CD04E4B1B68013B19
:101560004C4A13604D4B1B68013B4C4A13600121F0
:10157000002001F0E8F8474B1B68092B08DC454BBD
:101580001A6807F120034949184605F0C9FF07E02A
:10159000404B1A6807F120034549184605F0C0FF83
:1015A00007F12003184601F0AFF80021012001F0F7
:1015B000CAF83A4B1B68092B08DC384B1A6807F14C
:1015C00020033C49184605F0ABFF07E0334B1A688F
:1015D00007F120033849184605F0A2FF07F1200360
:1015E000184601F091F801F0B9FF4FF47A7100202C
:1015F00001F0E4FE2C4B5B68002B11D0234B07223B
:101600001A6001F01FFF01F0A9FF264B1B684FF481
:101610007A7202FB03F37B64796C012001F0CEFE49
:101620000120FFF78FFC0346002B17D0174B0A222F
:101630001A604FF47A71012001F0C0FE01F002FF40
:10164000144B0A221A60154B0A221A601B4B002207
:101650005A604FF47A71002001F0B0FE0020FFF7CD
:1016600071FC0346002B00F0648101F062F8074B27
:1016700002221A6001F0E6FE4FF47A71002001F0B8
:101680009DFE0E4B00221A6053E100BF980200201D
:10169000500000204400002054000020480000209A
:1016A000580000204C000020AC020020B098000838
:1016B000C0980008D0980008E09800086C0200204C
:1016C00001F014FF9F4B1B68002B4CD09E4B1B68F6
:1016D000013B9D4A13609D4B1B68013B9B4A136075
:1016E0000121002001F02FF8984B1B68092B08DC22
:1016F000964B1A6807F110039549184605F010FF3C
:1017000007E0924B1A6807F110039249184605F05A
:1017100007FF07F11003184600F0F6FF0021012033
:1017200001F011F8884B1B68092B08DC864B1A68FE
:1017300007F110038849184605F0F2FE07E0824BD6
:101740001A6807F110038549184605F0E9FE07F10C
:101750001003184600F0D8FF01F000FF4FF47A7133
:10176000002001F02BFE774B5B68002B11D07C4BE7
:1017700008221A6001F066FE01F0F0FE794B1B684A
:101780004FF47A7202FB03F33B64396C012001F0E1
:1017900015FE0120FFF7D6FB0346002B17D0704B38
:1017A0000B221A60684B0A221A60684B0A221A60E0
:1017B00001F048FE4FF47A71012001F0FFFD6A4B01
:1017C00000225A604FF47A71002001F0F7FD0020EA
:1017D000FFF7B8FB0346002B00F0AD8000F0A9FF37
:1017E0005F4B02221A6001F02DFE4FF47A71002047
:1017F00001F0E4FD5C4B00221A609CE001F092FED7
:10180000504B1B68002B46D04F4B1B68013B4E4A88
:101810001360544B1B68013B524A136001210020A6
:1018200000F091FF4F4B1B68092B07DC4D4B1A68EA
:101830003B464749184605F073FE06E0494B1A68D7
:101840003B464449184605F06BFE3B46184600F0FF
:101850005BFF0021012000F076FF3B4B1B68092B4A
:1018600007DC394B1A683B463B49184605F058FEE1
:1018700006E0354B1A683B463849184605F050FEDD
:101880003B46184600F040FF01F068FE4FF47A71C5
:10189000002001F093FD2B4B5B68002B11D0304BE7
:1018A00005221A6001F05AFE01F0CCFD274B1B689F
:1018B0004FF47A7202FB03F37B64796C012001F030
:1018C0007DFD0120FFF73EFB0346002B17D0244B84
:1018D0000C221A601C4B0A221A60224B0A221A6040
:1018E0004FF47A71012001F069FD01F0ABFD1E4B50
:1018F00000225A604FF47A71002001F05FFD002051
:10190000FFF720FB0346002B17D000F012FF144B0B
:1019100002221A6001F096FD4FF47A71002001F066
:101920004DFD114B00221A6007E000BF06E000BF2A
:1019300004E000BF02E000BF00E000BF00BF483786
:10194000BD4680BDAC020020440000204C000020B9
:10195000B0980008C0980008D0980008E0980008E7
:1019600098020020480000206C02002080B584B05E
:1019700000AFAF4B1B68093B032B00F2828201A230
:1019800052F823F095190008C31A0008F11B00084B
:10199000531D000801F072FDA64B5B68002B1AD0A6
:1019A000A34B05221A6001F04DFDA34B1B68A34A0F
:1019B0001360A34B1B68A34A1360A34B1B68A34A85
:1019C0001360A04B1B684FF47A7202FB03F31946B5
:1019D000012001F0F3FC0120FFF7B4FA0346002BCD
:1019E00012D0934B0A221A60944B0A221A60974B2A
:1019F0000A221A6001F026FD4FF47A71012001F0ED
:101A0000DDFC934B00225A600020FFF79BFA03464F
:101A1000002B0BD0864B02221A6001F013FD01212E
:101A2000002001F0CBFC8A4B00221A60814B1B681E
:101A3000002B00F02882814B1B68013B7F4A13601A
:101A4000804B1B68013B7F4A13600121002000F09E
:101A50007AFE7A4B1B68092B07DC784B1A683B46E9
:101A60007C49184605F05CFD06E0744B1A683B465D
:101A70007949184605F054FD3B46184600F044FEEF
:101A80000021012000F05FFE6E4B1B68092B07DC74
:101A90006C4B1A683B467149184605F041FD06E05B
:101AA000684B1A683B466E49184605F039FD3B46BF
:101AB000184600F029FE4FF47A71002001F07EFCF8
:101AC000E1E101F0F7FC5B4B5B68002B1AD0584B4F
:101AD00005221A6001F0B6FC574B1B68574A136089
:101AE000574B1B68574A1360574B1B68574A136084
:101AF000544B1B684FF47A7202FB03F31946012022
:101B000001F05CFC4B4B1B68002B44D04B4B1B681B
:101B1000013B4A4A13604D4B1B68013B4B4A136023
:101B20000121002000F00FFE444B1B68092B07DC4D
:101B3000424B1A683B464749184605F0F1FC06E05F
:101B40003E4B1A683B464449184605F0E9FC3B46C3
:101B5000184600F0D9FD0021012000F0F4FD3B4BB8
:101B60001B68092B07DC394B1A683B463B49184672
:101B700005F0D6FC06E0354B1A683B463849184656
:101B800005F0CEFC3B46184600F0BEFD4FF47A71DE
:101B9000002001F013FC0120FFF7D4F90346002BCD
:101BA00012D0234B0B221A604FF47A71012001F0FE
:101BB00005FC01F047FC214B0A221A60214B0A2246
:101BC0001A60234B00225A600020FFF7BBF903463E
:101BD000002B00F05A81164B02221A6001F032FCF1
:101BE0000121002001F0EAFB194B00221A604CE1B0
:101BF00001F07CFC0F4B1B68002B5ED00F4B1B6869
:101C0000013B0E4A13600F4B1B68013B0D4A1360EA
:101C10000121002000F097FD0A4B1B68092B21DCF5
:101C2000084B1A683B460C49184605F079FC20E041
:101C300098020020AC020020500000204400002048
:101C4000580000204C0000205400002048000020D4
:101C50006C020020F0980008009900081099000814
:101C6000209900088D4B1A683B468D49184605F0AF
:101C700057FC3B46184600F047FD0021012000F0CC
:101C800062FD884B1B68092B07DC864B1A683B46B4
:101C90008549184605F044FC06E0824B1A683B462D
:101CA0008149184605F03CFC3B46184600F02CFDE7
:101CB0004FF47A71002001F081FB7C4B5B68002BB4
:101CC0001AD07B4B05221A6001F0BCFB794B1B68D4
:101CD000744A1360784B1B68704A1360774B1B681B
:101CE000774A13606D4B1B684FF47A7202FB03F363
:101CF0001946012001F062FB0120FFF723F903469A
:101D0000002B12D06A4B0C221A60664B0A221A6012
:101D10006B4B0A221A604FF47A71012001F04EFBDE
:101D200001F090FB674B00225A600020FFF70AF990
:101D30000346002B00F0AB805D4B02221A6001F0DD
:101D400081FB0121002001F039FB5E4B00221A606B
:101D50009DE001F0E7FB554B5B68002B1AD0544B1C
:101D600005221A6001F06EFB524B1B684D4A13604E
:101D7000514B1B68494A1360504B1B68504A136013
:101D8000464B1B684FF47A7202FB03F3194601209D
:101D900001F014FB454B1B68002B46D0414B1B68E0
:101DA000013B404A1360464B1B68013B444A1360A9
:101DB0000121002000F0C7FC414B1B68092B07DC08
:101DC0003F4B1A683B463649184605F0A9FB06E02A
:101DD0003B4B1A683B463249184605F0A1FB3B468F
:101DE000184600F091FC0021012000F0ACFC2D4BC6
:101DF0001B68092B07DC2B4B1A683B462A491846FF
:101E000005F08EFB06E0274B1A683B46264918462C
:101E100005F086FB3B46184600F076FC01F09EFB81
:101E20004FF47A71002001F0C9FA0120FFF78AF817
:101E30000346002B12D01E4B09221A604FF47A7110
:101E4000012001F0BBFA01F0FDFA164B0A221A60DC
:101E5000124B0A221A601B4B00225A600020FFF727
:101E600071F80346002B14D0114B02221A6001F0C6
:101E7000E9FA0121002001F0A1FA124B00221A60B8
:101E800007E000BF06E000BF04E000BF02E000BFC3
:101E900000E000BF00BF1037BD4680BD4C000020F1
:101EA000009900084400002020990008AC0200209E
:101EB000980200205000002058000020540000200C
:101EC000480000206C02002080B584B000AF924B27
:101ED0001B68013B0E2B00F22D8301A252F823F068
:101EE0001D1F0008251F0008D9200008AD2200088A
:101EF000352500083525000835250008352500085A
:101F00003525000835250008352500083525000849
:101F10003525000835250008772400087E4B00226F
:101F20001A6010E30121002000F00DFC7A4B1A68C2
:101F30003B467A49184605F0F3FA3B46184600F04E
:101F4000E3FB0021012000F0FEFB754B1B68092B11
:101F500007DC734B1A683B467249184605F0E0FAF5
:101F600006E06F4B1A683B466F49184605F0D8FAF1
:101F70003B46184600F0C8FB6C4B1B68002B09D091
:101F8000654B1B68184601F013FB4FF4FA710020F3
:101F900001F014FA0020FEF7D5FF0346002B07D00E
:101FA0005D4B03221A6001F04DFA614B00221A606A
:101FB0000120FEF7C7FF0346002B29D05C4B00220F
:101FC0005A60574B1B680133554A1360544B1B68CA
:101FD000642B02D1524B01221A600021012000F033
:101FE000B2FB4F4B1B68092B07DC4D4B1A683B4675
:101FF0004C49184605F094FA06E0494B1A683B46EE
:102000004949184605F08CFA3B46184600F07CFB1F
:102010000220FEF797FF0346002B00F08D82444B11
:1020200000229A603E4B1B68022B35DD3C4B1B683F
:10203000612B31DC3F4B1A68394B1B689A4205DA39
:10204000374B1A683B4B1B68D31A01E03A4B1B68AD
:102050003A4A13603A4B1A68384B1B681344632B97
:1020600017DC2F4B1A68354B1B68D31A344A1360A0
:102070002B4B1B68334A1360324B1B68324A136088
:102080002E4B1B682C4A13602D4B1B68294A13608A
:102090000EE000F07BFA0BE02C4B1B68294A136022
:1020A0002B4B1B68254A13602A4B1B68244A13607C
:1020B00001F0C8F9184B05221A60214B1B684FF438
:1020C0007A7202FB03F31946012001F077F901212E
:1020D000002001F073F92FE20121002000F033FB12
:1020E0000D4B1A683B460D49184605F019FA3B4658
:1020F000184600F009FB0021012000F024FB164BDC
:102100001B68092B2CDC144B1A683B4613491846F4
:1021100005F006FA2BE000BF980200203099000875
:10212000680000203C99000848990008AC02002093
:102130006C020020580000205400002048000020BD
:102140004C00002044000020500000205C000020D3
:1021500060000020640000206C00002050990008FE
:10216000984B1A683B469849184605F0D9F93B4602
:10217000184600F0C9FA954B1B68002B09D0944B08
:102180001B68184601F014FA4FF4FA71002001F0B0
:1021900015F90020FEF7D6FE0346002B07D08C4B26
:1021A00004221A6001F04EF98A4B00221A600120C5
:1021B000FEF7C8FE0346002B29D0864B00225A604A
:1021C000804B1B6801337F4A13607E4B1B68642B76
:1021D00002D17C4B01221A600021012000F0B3FAE9
:1021E000784B1B68092B07DC764B1A683B467A490B
:1021F000184605F095F906E0724B1A683B4672499D
:10220000184605F08DF93B46184600F07DFA02208D
:10221000FEF798FE0346002B00F090816D4B0022E4
:102220009A60684B1A686D4B1B689A4205DA6B4BD3
:102230001A68644B1B68D31A01E0694B1B68694A32
:102240001360684B1A685F4B1B681344632B17DCE1
:10225000644B1A685B4B1B681344634A1360594B09
:102260001B68624A1360604B1B685C4A13605F4BDB
:102270001B685F4A13605B4B1B68594A136001E09F
:1022800000F084F901F0DEF8514B05221A60554B3D
:102290001B684FF47A7202FB03F31946012001F028
:1022A0008DF80121002001F089F847E1012100208B
:1022B00000F049FA464B1A683B464E49184605F06D
:1022C0002FF93B46184600F01FFA0021012000F0CC
:1022D0003AFA3C4B1B68092B07DC474B1A683B4614
:1022E0004649184605F01CF906E0434B1A683B4680
:1022F0004349184605F014F93B46184600F004FA25
:10230000324B1B68002B09D0314B1B68184601F07B
:102310004FF94FF4FA71002001F050F80020FEF759
:1023200011FE0346002B07D0294B0F221A6001F043
:1023300089F8284B00221A600120FEF703FE0346AD
:10234000002B29D0234B00225A602B4B1B680133F2
:10235000294A1360284B1B68642B02D1264B0122AB
:102360001A600021012000F0EEF9164B1B68092BC2
:1023700007DC214B1A683B462049184605F0D0F887
:1023800006E01D4B1A683B461D49184605F0C8F883
:102390003B46184600F0B8F90220FEF7D3FD03468D
:1023A000002B00F0CD800B4B00229A60124B1A6874
:1023B0000A4B1B689A4225DA084B1A680E4B1B68B9
:1023C000D31A21E06C0000205C990008AC020020C8
:1023D000980200206C020020509900085000002054
:1023E000580000204C00002044000020480000203D
:1023F00054000020309900087000002068990008FF
:1024000074990008524B1B68524A1360524B1A6869
:10241000504B1B681344632B17DC4F4B1A684D4B12
:102420001B6813444D4A13604B4B1B684C4A1360A6
:102430004A4B1B684B4A1360464B1B68444A136067
:10244000474B1B68484A136001E000F09FF800F01A
:10245000F9FF464B05221A60414B1B684FF47A7214
:1024600002FB03F31946012000F0A8FF0121002020
:1024700000F0A4FF64E00121002000F064F93B4675
:102480003B49184605F04CF83B46184600F03CF92D
:102490000021012000F057F9364800F035F9364B9D
:1024A0009B68002B37D0354B1B68002B17D10122BE
:1024B0004021334801F02BFC00228021314801F0FB
:1024C00026FC012220212E4801F021FC00220821B7
:1024D0002B4801F01CFC294B01221A6016E0002257
:1024E0004021274801F013FC00228021254801F0FB
:1024F0000EFC00222021224801F009FC00220821C4
:102500001F4801F004FC1D4B00221A604FF47A7141
:10251000022000F053FF0020FEF714FD0346002BBD
:1025200010D000F08FFF114B01221A60164B0022D1
:102530001A6007E000BF06E000BF04E000BF02E051
:1025400000BF00E000BF00BF1037BD4680BD00BF28
:1025500054000020480000207000002044000020AB
:102560004C0000205000002058000020980200205D
:102570008099000890990008AC0200209402002085
:10258000000C0140001001406C02002080B400AF3C
:102590000D4B1B680D4A13600D4B1B680D4A1360F1
:1025A0000D4B1B680D4A1360084B1B680C4A1360E7
:1025B000084B1B680B4A1360084B1B680A4A1360E0
:1025C00000BFBD4680BC70475C0000204400002076
:1025D0006000002048000020640000204C00002023
:1025E00050000020540000205800002080B586B024
:1025F00002AF0346FB71FB7923F00F03FB73FB79FA
:102600001B01BB73FB7B43F00C03DBB23B72FB7B18
:1026100043F00803DBB27B72BB7B43F00C03DBB2FD
:10262000BB72BB7B43F00803DBB2FB7207F108020D
:102630006423009304234221034801F0E7FC00BF18
:102640001037BD4680BD00BF0403002080B586B0B2
:1026500002AF0346FB71FB7923F00F03FB73FB7999
:102660001B01BB73FB7B43F00D03DBB23B72FB7BB7
:1026700043F00903DBB27B72BB7B43F00D03DBB29B
:10268000BB72BB7B43F00903DBB2FB7207F10802AC
:102690006423009304234221034801F0B7FC00BFE8
:1026A0001037BD4680BD00BF0403002080B500AFD9
:1026B0003320FFF79BFF3220FFF798FF322001F015
:1026C00059F82820FFF792FF322001F053F801203B
:1026D000FFF78CFF322001F04DF80620FFF786FF50
:1026E000322001F047F80C20FFF780FF322001F084
:1026F00041F80220FFF77AFF322001F03BF88020FA
:10270000FFF774FF00BF80BD80B582B000AF786076
:1027100006E07B685A1C7A601B781846FFF796FF24
:102720007B681B78002BF4D100BF00BF0837BD4683
:1027300080BD80B500AF0120FFF758FF322001F0C7
:1027400019F800BF80BD80B584B000AF78603960F3
:102750007B68002B08D17B68DAB23B68DBB213449C
:10276000DBB27F33FB7308E03B68DBB24033DBB2A4
:102770005BB263F07F035BB2FB73FB7B1846FFF732
:1027800035FF00BF1037BD4680BD000080B590B05A
:1027900002AFFEF715FD034687F8373097F837305C
:1027A000002B34D1424B1B681846FDF73DFE024614
:1027B0000B46381DCDE900233E4A322104F07CFE51
:1027C0003B1D1846FDF7C4FC03469AB2391D4FF075
:1027D000FF33394803F0B6FE384B1B681846FDF747
:1027E00023FE02460B46381DCDE90023344A322130
:1027F00004F062FE3B1D1846FDF7AAFC03469AB2A0
:10280000391D4FF0FF332C4803F09CFE4CE097F845
:102810003730032B24D13B1D2A4A3221184604F0BD
:102820004BFE3B1D1846FDF793FC03469AB2391D3B
:102830004FF0FF33204803F085FE3B1D224A322132
:10284000184604F039FE3B1D1846FDF781FC03468F
:102850009AB2391D4FF0FF33174803F073FE23E09F
:102860003B1D1A4A3221184604F026FE3B1D18462D
:10287000FDF76EFC03469AB2391D4FF0FF330E4848
:1028800003F060FE3B1D124A3221184604F014FE8C
:102890003B1D1846FDF75CFC03469AB2391D4FF00C
:1028A000FF33054803F04EFE00BF3837BD4680BDFC
:1028B0008C020020A0990008A003002090020020B4
:1028C000B4990008CC990008E4990008FC99000824
:1028D000149A000880B500AF00F0EAFE00F032F86C
:1028E00000F016F900F0EAF800F06EF800F09AF83F
:1028F0000F4803F035FA00F0CFF9FFF7D7FE4FF499
:102900007A7232210B4800F005FB012232210A487D
:1029100000F000FB01223221084800F0FBFA0122FE
:102920003221074800F0F6FA00F02CFBFCE700BF6C
:10293000580300208D2700086D190008C91E0008E3
:102940009913000880B590B000AF07F11803282252
:102950000021184604F004F83B1D00221A605A605A
:102960009A60DA601A610223BB610123BB62102303
:10297000FB6202237B630023BB634FF46013FB63A2
:1029800007F11803184602F08DFD0346002B01D015
:1029900000F07CF90F237B600223BB600023FB6007
:1029A0004FF480633B6100237B613B1D022118468D
:1029B00002F0F8FF0346002B01D000F067F900BFDA
:1029C0004037BD4680BD000080B500AF124B134AB2
:1029D0001A60114B124A5A600F4B00229A600E4B3C
:1029E0000022DA600C4B4FF480421A610A4B00223D
:1029F0005A61094B00229A61074B0022DA61064BAB
:102A000000221A62044801F0BDF90346002B01D0F0
:102A100000F03CF900BF80BD0403002000540040DA
:102A2000A086010080B586B000AF07F10803002240
:102A30001A605A609A60DA603B4600221A605A6057
:102A40001D4B4FF080421A601B4B41F63F725A609B
:102A5000194B00229A60184B0922DA60164B0022AB
:102A60001A61154B00229A61134803F029F90346B5
:102A7000002B01D000F00AF94FF48053BB6007F13E
:102A8000080319460C4803F0ADFA0346002B01D0A9
:102A900000F0FCF800233B6000237B603B461946B6
:102AA000054803F08FFC0346002B01D000F0EEF840
:102AB00000BF1837BD4680BD5803002080B500AF69
:102AC000114B124A1A60104B4FF416525A600E4BBB
:102AD00000229A600C4B0022DA600B4B00221A6134
:102AE000094B0C225A61084B00229A61064B0022C6
:102AF000DA61054803F0D6FC0346002B01D000F054
:102B0000C5F800BF80BD00BFA00300200044004006
:102B100080B588B000AF07F1100300221A605A6038
:102B20009A60DA604D4B9B694C4A43F01003936105
:102B30004A4B9B6903F01003FB60FB68474B9B69A2
:102B4000464A43F020039361444B9B6903F0200302
:102B5000BB60BB68414B9B69404A43F004039361EF
:102B60003E4B9B6903F004037B607B683B4B9B6996
:102B70003A4A43F008039361384B9B6903F008031A
:102B80003B603B6800222021354801F0C0F800225C
:102B90008021344801F0BBF800226821324801F05E
:102BA000B6F84FF400533B61304B7B610023BB61AF
:102BB00007F1100319462B4800F00EFF20233B615C
:102BC00001237B610023BB610223FB6107F110033A
:102BD0001946234800F000FF4FF482633B61002355
:102BE0007B610023BB6107F1100319461E4800F00A
:102BF000F3FE80233B6101237B610023BB61022341
:102C0000FB6107F110031946164800F0E5FE4FF48A
:102C100040733B6100237B610023BB6107F110031C
:102C200019460F4800F0D8FE68233B6101237B6101
:102C30000023BB610223FB6107F1100319460A4818
:102C400000F0CAFE00220021282000F08EFE28207D
:102C500000F0A7FE00BF2037BD4680BD0010024037
:102C60000008014000100140000C0140000011105C
:102C700080B582B000AF786000F0B8FB00F02EF8AD
:102C8000FEF774F900BF0837BD4680BD80B400AFC1
:102C900072B600BFFEE7000080B400AF0A4B00220E
:102CA0001A60094B00225A60084B00221A60084B38
:102CB00000221A60074B00221A70074B00221A707C
:102CC00000BFBD4680BC7047E80300209C02002086
:102CD000A0020020A4020020A502002080B483B03E
:102CE00000AF154B1B687B601CE07B689B68002B6A
:102CF00004D07B689B685A1E7B689A607B689B68DF
:102D0000002B0CD17B681B695A1C7B681A617B689D
:102D1000DB68002B03D07B68DA687B689A607B688D
:102D20005B697B607B68002BDFD100BF00BF0C3785
:102D3000BD4680BC704700BFE803002080B584B06A
:102D400000AF78603D4B5B68002B01D1012370E040
:102D50003A4B1B68FB600023BB6066E0FB685B6866
:102D60007A689A425CD1BB68002B11D1FB685B6921
:102D7000002B0DD1F86803F0EBFD304B00221A60F8
:102D80002E4B5B68013B2D4A53600023FB604CE0F7
:102D9000BB68002B17D1FB685B699968FB689A6870
:102DA000FB685B690A449A60FB685B69234A1360AD
:102DB000F86803F0CDFD214B5B68013B1F4A53606F
:102DC0000023FB6031E0FB685B69002B0DD1F868E4
:102DD00003F0BEFDBB6800225A61184B5B68013BE3
:102DE000164A53600023FB601FE0FB685B6999682B
:102DF000FB689A68FB685B690A449A60FB685A69D9
:102E0000BB685A61FB6800225A61F86803F0A0FDB4
:102E10000A4B5B68013B094A53600023FB6004E0F6
:102E2000FB68BB60FB685B69FB60FB68002B95D1AE
:102E3000002318461037BD4680BD00BFE8030020C0
:102E400080B584B000AF0346FB71FB791846FFF7ED
:102E500075FF0346002B02D00223FB7301E0002321
:102E6000FB73FB7B18461037BD4680BD80B485B030
:102E700000AF7860264B5B681F2B01DD012342E029
:102E80007B6800221A61224B5B68002B03D1204A29
:102E90007B68136031E01E4B1B68FB600023BB6046
:102EA0000BE07B689A68FB689B68D21A7B689A6023
:102EB000FB68BB60FB685B69FB60FB68002B05D0AF
:102EC0007B689A68FB689B689A42EAD27B68FA68DA
:102ED0005A61BB68002B03D0BB687A685A6102E074
:102EE0000B4A7B681360FB68002B06D0FB689A686E
:102EF0007B689B68D21AFB689A60054B5B6801335C
:102F0000034A5360002318461437BD4680BC7047FF
:102F1000E803002080B586B000AFF860B9607A6041
:102F2000182003F00DFD03467B617B69BA689A6047
:102F30007B697A68DA600E4B1B6801330C4A1360B8
:102F40000B4B1B68DAB27B695A607B69FA681A60BE
:102F50007B6900225A617B6900221A617869FFF758
:102F600085FF7B695B68DBB218461837BD4680BDBC
:102F70009C02002080B400AF30BF00BFBD4680BCC3
:102F80007047000080B582B000AF21E0154B1B6890
:102F90007B6018E07B681B69002B11D07B681B6984
:102FA0005A1E7B681A617B681B6898477B68DB68E0
:102FB000002B05D17B685B68DBB21846FFF740FF4A
:102FC0007B685B697B607B68002BE3D1FFF7D2FFF6
:102FD000044B5B68002BD9D100F006F800BF08371E
:102FE000BD4680BDE803002080B400AF00BFBD46F1
:102FF00080BC704780B485B000AF154B9B69144A04
:1030000043F001039361124B9B6903F00103BB6022
:10301000BB680F4BDB690E4A43F08053D3610C4B06
:10302000DB6903F080537B607B680A4B5B68FB6065
:10303000FB6823F0E063FB60FB6843F00073FB6018
:10304000044AFB68536000BF1437BD4680BC70471C
:10305000001002400000014080B58AB000AF7860E7
:1030600007F1140300221A605A609A60DA607B68E4
:103070001B681D4A934232D11C4B9B691B4A43F08B
:1030800008039361194B9B6903F008033B613B699B
:103090004FF440737B611223BB6103233B6207F152
:1030A00014031946124800F097FC124B5B687B62D0
:1030B0007B6A43F0E0637B627B6A43F002037B62DE
:1030C0000C4A7B6A5360094BDB69084A43F40013DE
:1030D000D361064BDB6903F40013FB60FB6800BFA0
:1030E0002837BD4680BD00BF00540040001002409C
:1030F000000C01400000014080B584B000AF786052
:103100007B681B68B3F1804F13D10C4BDB690B4A12
:1031100043F00103D361094BDB6903F00103FB605A
:10312000FB68002200211C2000F01FFC1C2000F086
:1031300038FC00BF1037BD4680BD00BF0010024004
:1031400080B588B000AF786007F1100300221A60E4
:103150005A609A60DA607B681B68154A934223D1F3
:10316000144BDB69134A43F40033D361114BDB6921
:1031700003F40033FB60FB680E4B9B690D4A43F080
:10318000040393610B4B9B6903F00403BB60BB68B2
:103190000C233B6102237B610223FB6107F11003D7
:1031A0001946054800F018FC00BF2037BD4680BD19
:1031B00000440040001002400008014080B400AF0D
:1031C000FEE780B400AFFEE780B400AFFEE780B456
:1031D00000AFFEE780B400AFFEE780B400AF00BFF1
:1031E000BD4680BC704780B400AF00BFBD4680BC08
:1031F000704780B400AF00BFBD4680BC704780B54B
:1032000000AF00F09BFA00BF80BD000080B500AFAA
:10321000024802F0F7FD00BF80BD00BF5803002048
:1032200080B500AF4FF4005000F08AFD00BF80BDB4
:1032300080B400AF01231846BD4680BC704780B5FE
:1032400082B000AF7860396003F050FB034616226D
:103250001A604FF0FF3318460837BD4680BD80B571
:1032600082B000AF78604FF0FF317868FFF7E7FF7A
:10327000FEE780B586B000AFF860B9607A600023E1
:103280007B610AE0AFF300800146BB685A1CBA605C
:10329000CAB21A707B6901337B617A697B689A4292
:1032A000F0DB7B6818461837BD4680BD80B586B018
:1032B00000AFF860B9607A6000237B6109E0BB6809
:1032C0005A1CBA601B781846AFF300807B69013343
:1032D0007B617A697B689A42F1DB7B681846183714
:1032E000BD4680BD80B483B000AF78604FF0FF333F
:1032F00018460C37BD4680BC704780B483B000AF21
:10330000786039603B684FF400525A6000231846D9
:103310000C37BD4680BC704780B483B000AF786086
:10332000012318460C37BD4680BC704780B485B079
:1033300000AFF860B9607A60002318461437BD46C4
:1033400080BC704780B586B000AF7860144A154BDA
:10335000D31A7B617B693B61134B1B68002B02D145
:10336000114B124A1A60104B1A687B6813443A6971
:103370009A4207D203F0BAFA03460C221A604FF0C1
:10338000FF3309E0084B1B68FB60074B1A687B683A
:103390001344054A1360FB6818461837BD4680BDC4
:1033A0000050002000040000A80200203804002083
:1033B00080B400AF00BFBD4680BC704780B483B00E
:1033C00000AF78603960074A7B68002142F823101B
:1033D00005497B683A6841F8232000BF0C37BD4699
:1033E00080BC7047AC020020D402002080B483B0BF
:1033F00000AF00237B6017E0104A7B6852F823304F
:10340000002B09DD0D4A7B6852F823305A1E0B4908
:103410007B6841F8232004E0094A7B68012142F8D7
:1034200023107B6801337B607B68092BE4DD00BFE0
:1034300000BF0C37BD4680BC704700BFD4020020DF
:10344000AC02002080B500AF00228021094800F0C6
:103450005EFC00224021084800F059FC00220821AF
:10346000054800F054FC00222021034800F04FFCE6
:1034700000BF80BD00100140000C014080B500AFCE
:1034800001224021094800F042FC01228021084825
:1034900000F03DFC00222021044800F038FC01220D
:1034A0000821024800F033FC00BF80BD000C014041
:1034B0000010014080B500AF01224021094800F012
:1034C00026FC01228021084800F021FC0122202155
:1034D000044800F01CFC00220821024800F017FC00
:1034E00000BF80BD000C01400010014080B500AF5E
:1034F00000224021094800F00AFC012280210848EE
:1035000000F005FC01222021044800F000FC01220B
:103510000821024800F0FBFB00BF80BD000C014009
:103520000010014080B500AF01224021094800F0A1
:10353000EEFB00228021084800F0E9FB0122202157
:10354000044800F0E4FB01220821024800F0DFFB00
:1035500000BF80BD000C01400010014080B400AFEE
:103560000D4B1B68002B03DC0C4B1B680A4A1360D5
:103570000B4B1B68002B03DC0A4B1B68084A1360CB
:10358000094B1B68002B03DC084B1B68064A1360C1
:1035900000BFBD4680BC70474400002050000020A2
:1035A0004C0000205800002048000020540000205B
:1035B00080B582B000AF78607B68042B33D07B6825
:1035C000042B45DC7B68022B03D07B68032B15D0D2
:1035D0003EE001224021214800F099FB0122802198
:1035E0001F4800F094FB012220211C4800F08FFBB3
:1035F00001220821194800F08AFB2AE0012240211B
:10360000164800F084FB00228021154800F07FFB63
:1036100001222021114800F07AFB002208210F48E6
:1036200000F075FB15E0002240210C4800F06FFB14
:10363000012280210A4800F06AFB0022202107486D
:1036400000F065FB01220821044800F060FB00E067
:1036500000BF00BF0837BD4680BD00BF000C014061
:1036600000100140FFF7A4FE0B480C490C4A002350
:1036700002E0D458C4500433C4188C42F9D3094A28
:10368000094C002301E013600432A242FBD303F093
:1036900033F9FFF71FF970470000002050020020A7
:1036A000449E00085002002038040020FEE700007D
:1036B00080B500AF084B1B68074A43F01003136046
:1036C000032000F047F9002000F008F8FFF792FC13
:1036D0000023184680BD00BF0020024080B582B0A4
:1036E00000AF7860124B1A68124B1B7819464FF4E2
:1036F0007A73B3FBF1F3B2FBF3F3184600F05FF912
:103700000346002B01D001230EE07B680F2B0AD863
:10371000002279684FF0FF3000F027F9064A7B68F5
:103720001360002300E0012318460837BD4680BD22
:10373000740000207C0000207800002080B400AFDE
:10374000054B1B781A46054B1B681344034A13604C
:1037500000BFBD4680BC70477C00002024040020D0
:1037600080B400AF024B1B681846BD4680BC704752
:103770002404002080B584B000AF7860FFF7F0FF2C
:10378000B8607B68FB60FB68B3F1FF3F05D00A4B74
:103790001B781A46FB681344FB6000BFFFF7E0FF8D
:1037A0000246BB68D31AFA689A42F7D800BF00BF36
:1037B0001037BD4680BD00BF7C00002080B485B0BE
:1037C00000AF78607B6803F00703FB600C4BDB689D
:1037D000BB60BA684FF6FF031340BB60FB681A0278
:1037E000BB68134343F0BF6343F40033BB60044A38
:1037F000BB68D36000BF1437BD4680BC704700BFB4
:1038000000ED00E080B400AF044BDB681B0A03F05E
:1038100007031846BD4680BC704700BF00ED00E0BE
:1038200080B483B000AF0346FB7197F90730002BDB
:103830000BDBFB7903F01F02064997F907305B09A0
:10384000012000FA02F241F8232000BF0C37BD46E8
:1038500080BC704700E100E080B483B000AF034655
:103860003960FB7197F90730002B0ADB3B68DAB24D
:103870000C4997F907301201D2B20B4483F80023A8
:103880000AE03B68DAB20849FB7903F00F03043B16
:103890001201D2B20B441A7600BF0C37BD4680BC71
:1038A000704700BF00E100E000ED00E080B489B0A7
:1038B00000AFF860B9607A60FB6803F00703FB6152
:1038C000FB69C3F10703042B28BF0423BB61FB6919
:1038D0000433062B02D9FB69033B00E000237B6124
:1038E0004FF0FF32BB6902FA03F3DA43BB681A40B8
:1038F0007B699A404FF0FF317B6901FA03F3D943AA
:103900007B680B40134318462437BD4680BC704784
:1039100080B582B000AF78607B68013BB3F1807FF7
:1039200001D301230FE00A4A7B68013B53600F215A
:103930004FF0FF30FFF790FF054B00229A60044BD9
:1039400007221A60002318460837BD4680BD00BF15
:1039500010E000E080B582B000AF78607868FFF7D3
:103960002DFF00BF0837BD4680BD80B586B000AFD3
:103970000346B9607A60FB7300237B61FFF742FF67
:1039800078617A68B9687869FFF790FF024697F91D
:103990000F3011461846FFF75FFF00BF1837BD46CE
:1039A00080BD80B582B000AF0346FB7197F9073048
:1039B0001846FFF735FF00BF0837BD4680BD80B50C
:1039C00082B000AF78607868FFF7A2FF0346184620
:1039D0000837BD4680BD000080B48BB000AF786072
:1039E000396000237B6200233B6269E101227B6A2C
:1039F00002FA03F3FB613B681B68FA691340BB6181
:103A0000BA69FB699A4240F058813B685B689A4A00
:103A100093425ED0984A934275D8984A934258D0C0
:103A2000964A93426FD8964A934252D0944A934210
:103A300069D8944A93424CD0924A934263D8924AAE
:103A4000934246D0904A93425DD8122B2AD8122B2B
:103A500059D801A252F823F0D33A0008AD3A000831
:103A6000BF3A0008013B0008073B0008073B00087D
:103A7000073B0008073B0008073B0008073B00081E
:103A8000073B0008073B0008073B0008073B00080E
:103A9000073B0008073B0008073B0008B53A000851
:103AA000C93A0008794A934213D02CE03B68DB689E
:103AB0003B6229E03B68DB6804333B6224E03B68FF
:103AC000DB6808333B621FE03B68DB680C333B621A
:103AD0001AE03B689B68002B02D104233B6213E091
:103AE0003B689B68012B05D108233B627B68FA6920
:103AF0001A6109E008233B627B68FA695A6103E0B6
:103B000000233B6200E000BFBB69FF2B01D87B684C
:103B100001E07B6804337B61BB69FF2B02D87B6AC1
:103B20009B0002E07B6A083B9B003B617B691A6853
:103B30000F213B6901FA03F3DB431A40396A3B6901
:103B400001FA03F31A437B691A603B685B6803F070
:103B50008053002B00F0B1804D4B9B694C4A43F0E1
:103B6000010393614A4B9B6903F00103BB60BB688F
:103B7000484A7B6A9B08023352F82330FB607B6A19
:103B800003F003039B000F2202FA03F3DB43FA68FE
:103B90001340FB607B68404A934213D07B683F4AE6
:103BA00093420DD07B683E4A934207D07B683D4AE2
:103BB000934201D1032306E0042304E0022302E040
:103BC000012300E000237A6A02F00302920093408E
:103BD000FA681343FB602F497B6A9B080233FA683B
:103BE00041F823203B685B6803F48013002B06D068
:103BF0002D4B9A682C49BB6913438B6006E02A4B16
:103C00009A68BB69DB43284913408B603B685B685B
:103C100003F40013002B06D0234BDA682249BB695A
:103C20001343CB6006E0204BDA68BB69DB431E49D7
:103C30001340CB603B685B6803F40033002B06D075
:103C4000194B5A681849BB6913434B6006E0164B81
:103C50005A68BB69DB43144913404B603B685B689F
:103C600003F48033002B21D00F4B1A680E49BB6937
:103C700013430B6021E000BF000032100000311040
:103C8000000022100000211000001210000011108E
:103C9000001002400000014000080140000C0140FB
:103CA0000010014000140140000401400B4B1A6851
:103CB000BB69DB43094913400B607B6A01337B62BC
:103CC0003B681A687B6A22FA03F3002B7FF48EAEFE
:103CD00000BF00BF2C37BD4680BC704700040140C8
:103CE00080B485B000AF78600B467B807B689A68B3
:103CF0007B881340002B02D00123FB7301E00023DB
:103D0000FB73FB7B18461437BD4680BC704780B4FC
:103D100083B000AF78600B467B8013467B707B7866
:103D2000002B03D07A887B681A6103E07B881A0431
:103D30007B681A6100BF0C37BD4680BC704700002D
:103D400080B582B000AF0346FB80084B5A69FB8800
:103D50001340002B06D0054AFB885361FB881846A8
:103D600000F006F800BF0837BD4680BD00040140E2
:103D700080B483B000AF0346FB8000BF0C37BD4664
:103D800080BC704780B584B000AF78607B68002B42
:103D900001D101232BE17B6893F83D30DBB2002B8E
:103DA00006D17B68002283F83C207868FFF754F93D
:103DB0007B68242283F83D207B681B681A687B6837
:103DC0001B6822F001021A607B681B681A687B6816
:103DD0001B6842F400421A607B681B681A687B68A3
:103DE0001B6822F400421A6001F024FFF8607B682F
:103DF0005B68814A934207D8FB68804A934294BF2C
:103E000001230023DBB206E0FB687D4A934294BFA6
:103E100001230023DBB2002B01D00123E7E0FB6884
:103E2000784AA2FB03239B0CBB607B681B685B6822
:103E300023F03F017B681B68BA680A435A607B68BD
:103E40001B681B6A23F03F017B685B686A4A9342E8
:103E500002D8BB68013309E0BB684FF4967202FBDD
:103E600003F3694AA2FB03239B0901337A681268B2
:103E70000B4313627B681B68DB6923F44F4222F01B
:103E8000FF027B685B685C498B4219D8FB68591E4E
:103E90007B685B685B00B1FBF3F3591C40F6FC7375
:103EA0000B40002B0AD0FB68591E7B685B685B00E7
:103EB000B1FBF3F30133C3F30B0351E004234FE0F1
:103EC0007B689B68002B11D1FB68581E7B68596882
:103ED0000B465B000B44B0FBF3F30133C3F30B035E
:103EE000002B0CBF01230023DBB212E0FB68581E3D
:103EF0007B6859680B469B000B4499000B44B0FB50
:103F0000F3F30133C3F30B03002B0CBF0123002396
:103F1000DBB2002B01D0012322E07B689B68002BE1
:103F20000ED1FB68581E7B6859680B465B000B443A
:103F3000B0FBF3F30133C3F30B0343F400430FE08F
:103F4000FB68581E7B6859680B469B000B44990020
:103F50000B44B0FBF3F30133C3F30B0343F44043CF
:103F6000796809681343CB617B681B681B6823F081
:103F7000C0017B68DA697B681B6A1A437B681B682F
:103F80000A431A607B681B689B6823F4034323F091
:103F9000FF037A6811697A68D26811437A681268F7
:103FA0000B4393607B681B68DB6823F0FF017B6831
:103FB0005A697B689B691A437B681B680A43DA600D
:103FC0007B681B681A687B681B6842F001021A60F4
:103FD0007B6800221A647B68202283F83D207B687E
:103FE00000221A637B68002283F83E2000231846D3
:103FF0001037BD4680BD00BFA08601007F841E0033
:10400000FF083D0083DE1B43D34D621080B588B0AE
:1040100002AFF8607A601A460B467B8113463B81FB
:10402000FFF79EFB7861FB6893F83D30DBB2202BF5
:1040300040F0E0807B690093192301227049F86801
:1040400000F0FAFF0346002B01D00223D3E0FB6807
:1040500093F83C30012B01D10223CCE0FB68012214
:1040600083F83C20FB681B681B6803F00103012BED
:1040700007D0FB681B681A68FB681B6842F00102E6
:104080001A60FB681B681A68FB681B6822F40062F0
:104090001A60FB68212283F83D20FB68102283F818
:1040A0003E20FB6800221A64FB687A685A62FB684B
:1040B0003A895A85FB685B8D9AB2FB681A85FB6862
:1040C000504ADA6279897B693A6AF86800F07CFDC7
:1040D0000346002B01D001238DE000233B61FB68E8
:1040E0001B685B693B61FB681B689B693B613B69C3
:1040F00066E07A69396AF86801F0B8F80346002B7F
:104100000DD0FB681B6C042B07D1FB681B681A6879
:10411000FB681B6842F400721A6001236BE0FB68C5
:104120005B6A1A78FB681B681A61FB685B6A5A1C39
:10413000FB685A62FB685B8D9BB2013B9AB2FB68DD
:104140005A85FB681B8D013B9AB2FB681A85FB6898
:104150001B685B6903F00403042B1BD1FB681B8DF8
:10416000002B17D0FB685B6A1A78FB681B681A6122
:10417000FB685B6A5A1CFB685A62FB685B8D9BB2EA
:10418000013B9AB2FB685A85FB681B8D013B9AB2D2
:10419000FB681A857A69396AF86801F0AFF8034656
:1041A000002B0DD0FB681B6C042B07D1FB681B6830
:1041B0001A68FB681B6842F400721A6001231AE057
:1041C000FB681B8D002B94D1FB681B681A68FB6889
:1041D0001B6842F400721A60FB68202283F83D20BD
:1041E000FB68002283F83E20FB68002283F83C2015
:1041F000002300E0022318461837BD4680BD00BFEB
:10420000020010000000FFFF80B58CB002AFF86024
:104210007A601A460B467B8113463B8100233B6242
:10422000FFF79EFA7862FB6893F83D30DBB2202BF3
:1042300040F04B827B6A0093192301227F49F86882
:1042400000F0FAFE0346002B01D002233EE2FB6899
:1042500093F83C30012B01D1022337E2FB680122A5
:1042600083F83C20FB681B681B6803F00103012BEB
:1042700007D0FB681B681A68FB681B6842F00102E4
:104280001A60FB681B681A68FB681B6822F40062EE
:104290001A60FB68222283F83D20FB68102283F815
:1042A0003E20FB6800221A64FB687A685A62FB6849
:1042B0003A895A85FB685B8D9AB2FB681A85FB6860
:1042C0005F4ADA6279897B6A3A6BF86800F0FEFC33
:1042D0000346002B01D00123F8E1FB681B8D002B66
:1042E00013D10023FB61FB681B685B69FB61FB6802
:1042F0001B689B69FB61FB69FB681B681A68FB68AC
:104300001B6842F400721A60CCE1FB681B8D012B24
:104310001ED1FB681B681A68FB681B6822F4806268
:104320001A6072B600BF0023BB61FB681B685B6943
:10433000BB61FB681B689B69BB61BB69FB681B6851
:104340001A68FB681B6842F400721A6062B635E0B6
:10435000FB681B8D022B1ED1FB681B681A68FB686B
:104360001B6842F400621A6072B600BF00237B61D2
:10437000FB681B685B697B61FB681B689B697B61F1
:104380007B69FB681B681A68FB681B6822F4806203
:104390001A6062B612E0FB681B681A68FB681B684B
:1043A00042F480621A6000233B61FB681B685B6912
:1043B0003B61FB681B689B693B613B6972E1FB6881
:1043C0001B8D032B00F21F81FB681B8D012B23D15A
:1043D0007A6A396BF86800F0D9FF0346002B01D0E8
:1043E000012373E1FB681B681A69FB685B6AD2B240
:1043F0001A70FB685B6A5A1CFB685A62FB681B8D6B
:10440000013B9AB2FB681A85FB685B8D9BB2013B4E
:104410009AB2FB685A8545E1FB681B8D022B52D18D
:104420007B6A00933B6B00220649F86800F004FEAB
:104430000346002B08D0012348E100BF0200100012
:104440000000FFFF0400010072B600BFFB681B689C
:104450001A68FB681B6842F400721A60FB681B68EC
:104460001A69FB685B6AD2B21A70FB685B6A5A1CF5
:10447000FB685A62FB681B8D013B9AB2FB681A8588
:10448000FB685B8D9BB2013B9AB2FB685A8562B6B2
:1044900000BFFB681B681A69FB685B6AD2B21A70BE
:1044A000FB685B6A5A1CFB685A62FB681B8D013B08
:1044B0009AB2FB681A85FB685B8D9BB2013B9AB28E
:1044C000FB685A85EEE07B6A00933B6B00228149D2
:1044D000F86800F0B1FD0346002B01D00123F5E0A0
:1044E000FB681B681A68FB681B6822F480621A600C
:1044F00072B600BFFB681B681A69FB685B6AD2B2C0
:104500001A70FB685B6A5A1CFB685A62FB681B8D59
:10451000013B9AB2FB681A85FB685B8D9BB2013B3D
:104520009AB2FB685A856C4B1B68DB086B4AA2FB8E
:1045300003231A0A13469B001344DA00D31A3B6282
:104540003B6A013B3B623B6A002B18D1FB680022AF
:104550001A63FB68202283F83D20FB68002283F861
:104560003E20FB681B6C43F02002FB681A6462B6B5
:1045700000BFFB68002283F83C200123A6E0FB6813
:104580001B685B6903F00403042BD9D1FB681B682B
:104590001A68FB681B6842F400721A60FB681B68AB
:1045A0001A69FB685B6AD2B21A70FB685B6A5A1CB4
:1045B000FB685A62FB681B8D013B9AB2FB681A8547
:1045C000FB685B8D9BB2013B9AB2FB685A8562B671
:1045D00000BFFB681B681A69FB685B6AD2B21A707D
:1045E000FB685B6A5A1CFB685A62FB681B8D013BC7
:1045F0009AB2FB681A85FB685B8D9BB2013B9AB24D
:10460000FB685A854EE07A6A396BF86800F0BEFEA6
:104610000346002B01D0012358E0FB681B681A6990
:10462000FB685B6AD2B21A70FB685B6A5A1CFB6853
:104630005A62FB681B8D013B9AB2FB681A85FB68C6
:104640005B8D9BB2013B9AB2FB685A85FB681B6885
:104650005B6903F00403042B24D1FB681B8D032B3F
:1046600007D1FB681B681A68FB681B6822F480622C
:104670001A60FB681B681A69FB685B6AD2B21A7021
:10468000FB685B6A5A1CFB685A62FB681B8D013B26
:104690009AB2FB681A85FB685B8D9BB2013B9AB2AC
:1046A000FB685A85FB681B8D002B7FF488AEFB6886
:1046B000202283F83D20FB68002283F83E20FB681F
:1046C000002283F83C20002300E00223184628370C
:1046D000BD4680BD040001007400002089B5F814B7
:1046E00080B58CB002AFF860084611461A46034602
:1046F0007B810B463B811346FB8000233B62FFF727
:104700002FF87862FB6893F83D30DBB2202B40F045
:1047100050827B6A0093192301228249F86800F0D5
:104720008BFC0346002B01D0022343E2FB6893F885
:104730003C30012B01D102233CE2FB68012283F8CB
:104740003C20FB681B681B6803F00103012B07D0AA
:10475000FB681B681A68FB681B6842F001021A605C
:10476000FB681B681A68FB681B6822F400621A6009
:10477000FB68222283F83D20FB68402283F83E201C
:10478000FB6800221A64FB683A6B5A62FB68BA8EB7
:104790005A85FB685B8D9AB2FB681A85FB68624A92
:1047A000DA62F8883A8979897B6A0193BB6B009356
:1047B0000346F86800F058FB0346002B01D00123A4
:1047C000F8E1FB681B8D002B13D10023FB61FB6814
:1047D0001B685B69FB61FB681B689B69FB61FB698C
:1047E000FB681B681A68FB681B6842F400721A6059
:1047F000CCE1FB681B8D012B1ED1FB681B681A687E
:10480000FB681B6822F480621A6072B600BF002346
:10481000BB61FB681B685B69BB61FB681B689B69CC
:10482000BB61BB69FB681B681A68FB681B6842F4C4
:1048300000721A6062B635E0FB681B8D022B1ED138
:10484000FB681B681A68FB681B6842F400621A6008
:1048500072B600BF00237B61FB681B685B697B61EC
:10486000FB681B689B697B617B69FB681B681A6836
:10487000FB681B6822F480621A6062B612E0FB6873
:104880001B681A68FB681B6842F480621A60002388
:104890003B61FB681B685B693B61FB681B689B694C
:1048A0003B613B6972E1FB681B8D032B00F21F81AA
:1048B000FB681B8D012B23D17A6AB96BF86800F075
:1048C00065FD0346002B01D0012373E1FB681B68E3
:1048D0001A69FB685B6AD2B21A70FB685B6A5A1C81
:1048E000FB685A62FB681B8D013B9AB2FB681A8514
:1048F000FB685B8D9BB2013B9AB2FB685A8545E130
:10490000FB681B8D022B52D17B6A0093BB6B00228C
:104910000649F86800F090FB0346002B08D00123FD
:1049200048E100BF020010000000FFFF040001008A
:1049300072B600BFFB681B681A68FB681B6842F40C
:1049400000721A60FB681B681A69FB685B6AD2B266
:104950001A70FB685B6A5A1CFB685A62FB681B8D05
:10496000013B9AB2FB681A85FB685B8D9BB2013BE9
:104970009AB2FB685A8562B600BFFB681B681A6969
:10498000FB685B6AD2B21A70FB685B6A5A1CFB68F0
:104990005A62FB681B8D013B9AB2FB681A85FB6863
:1049A0005B8D9BB2013B9AB2FB685A85EEE07B6A55
:1049B0000093BB6B00228149F86800F03DFB034681
:1049C000002B01D00123F5E0FB681B681A68FB6827
:1049D0001B6822F480621A6072B600BFFB681B6815
:1049E0001A69FB685B6AD2B21A70FB685B6A5A1C70
:1049F000FB685A62FB681B8D013B9AB2FB681A8503
:104A0000FB685B8D9BB2013B9AB2FB685A856C4B8D
:104A10001B68DB086B4AA2FB03231A0A13469B00A0
:104A20001344DA00D31A3B623B6A013B3B623B6AA8
:104A3000002B18D1FB6800221A63FB68202283F840
:104A40003D20FB68002283F83E20FB681B6C43F08E
:104A50002002FB681A6462B600BFFB68002283F87C
:104A60003C200123A6E0FB681B685B6903F004039C
:104A7000042BD9D1FB681B681A68FB681B6842F4D9
:104A800000721A60FB681B681A69FB685B6AD2B225
:104A90001A70FB685B6A5A1CFB685A62FB681B8DC4
:104AA000013B9AB2FB681A85FB685B8D9BB2013BA8
:104AB0009AB2FB685A8562B600BFFB681B681A6928
:104AC000FB685B6AD2B21A70FB685B6A5A1CFB68AF
:104AD0005A62FB681B8D013B9AB2FB681A85FB6822
:104AE0005B8D9BB2013B9AB2FB685A854EE07A6AB5
:104AF000B96BF86800F04AFC0346002B01D0012393
:104B000058E0FB681B681A69FB685B6AD2B21A70CE
:104B1000FB685B6A5A1CFB685A62FB681B8D013B91
:104B20009AB2FB681A85FB685B8D9BB2013B9AB217
:104B3000FB685A85FB681B685B6903F00403042B60
:104B400024D1FB681B8D032B07D1FB681B681A68F7
:104B5000FB681B6822F480621A60FB681B681A6994
:104B6000FB685B6AD2B21A70FB685B6A5A1CFB680E
:104B70005A62FB681B8D013B9AB2FB681A85FB6881
:104B80005B8D9BB2013B9AB2FB685A85FB681B8D1B
:104B9000002B7FF488AEFB68202283F83D20FB6861
:104BA000002283F83E20FB68002283F83C2000238B
:104BB00000E0022318462837BD4680BD04000100EE
:104BC0007400002089B5F81480B588B002AFF86091
:104BD0007A603B600B467B81FB68DB6A7B617B69AB
:104BE000082B06D07B69012B03D07B6913F5803F2E
:104BF00008D1FB681B681A68FB681B6842F4807266
:104C00001A600BE0FB681B6B122B07D1FB681B685B
:104C10001A68FB681B6842F480721A603B68009354
:104C20007B6800224FF00111F86800F005FA034696
:104C3000002B0DD0FB681B681B6803F48073B3F571
:104C4000807F03D1FB684FF400721A64032335E0C0
:104C5000FB681B69B3F5804F08D17B89DBB21A462C
:104C6000FB681B6802F0FE021A611BE07B89DB1106
:104C7000DBB203F00603DBB263F00F03DAB2FB68CA
:104C80001B681A613B687A680E49F86800F04EFAB2
:104C90000346002B01D0012310E07B89DAB2FB68C8
:104CA0001B681A613B687A680749F86800F03EFAA9
:104CB0000346002B01D0012300E0002318461837DB
:104CC000BD4680BD080001000200010080B588B02B
:104CD00002AFF8607A603B600B467B81FB68DB6A61
:104CE0007B61FB681B681A68FB681B6842F4806282
:104CF0001A607B69082B06D07B69012B03D07B6986
:104D000013F5803F08D1FB681B681A68FB681B68B5
:104D100042F480721A600BE0FB681B6B112B07D109
:104D2000FB681B681A68FB681B6842F480721A6093
:104D30003B6800937B6800224FF00111F86800F097
:104D40007BF90346002B0DD0FB681B681B6803F43E
:104D50008073B3F5807F03D1FB684FF400721A644F
:104D6000032379E0FB681B69B3F5804F08D17B8989
:104D7000DBB243F00103DAB2FB681B681A615FE043
:104D80007B89DB11DBB203F00603DBB263F00F03B8
:104D9000DAB2FB681B681A613B687A683049F868C8
:104DA00000F0C4F90346002B01D0012354E07B89B5
:104DB000DAB2FB681B681A613B687A682949F868AF
:104DC00000F0B4F90346002B01D0012344E0002396
:104DD0003B61FB681B685B693B61FB681B689B6907
:104DE0003B613B69FB681B681A68FB681B6842F4FF
:104DF00080721A603B6800937B6800224FF00111BB
:104E0000F86800F019F90346002B0DD0FB681B6809
:104E10001B6803F48073B3F5807F03D1FB684FF404
:104E200000721A64032317E07B89DB11DBB203F005
:104E30000603DBB263F00E03DAB2FB681B681A618B
:104E40003B687A680749F86800F070F90346002B60
:104E500001D0012300E0002318461837BD4680BD6D
:104E6000080001000200010080B588B002AFF860C0
:104E7000084611461A4603467B810B463B81134682
:104E8000FB80FB681B681A68FB681B6842F4806241
:104E90001A60FB681B681A68FB681B6842F4807222
:104EA0001A607B6A00933B6A00224FF00111F86898
:104EB00000F0C2F80346002B0DD0FB681B681B688E
:104EC00003F48073B3F5807F03D1FB684FF4007265
:104ED0001A640323AAE07B89DBB21A46FB681B68CD
:104EE00002F0FE021A617B6A3A6A5249F86800F0E1
:104EF0001DF90346002B01D0012397E000237B61BD
:104F0000FB681B685B697B61FB681B689B697B6155
:104F10007B697A6A396AF86800F0A8F90346002BC1
:104F20000DD0FB681B6C042B07D1FB681B681A684B
:104F3000FB681B6842F400721A60012376E0FB886C
:104F4000012B05D13B89DAB2FB681B681A6121E0AD
:104F50003B891B0A9BB2DAB2FB681B681A617A6A4A
:104F6000396AF86800F082F90346002B0DD0FB681F
:104F70001B6C042B07D1FB681B681A68FB681B6855
:104F800042F400721A60012350E03B89DAB2FB68F8
:104F90001B681A617A6A396AF86800F067F9034693
:104FA000002B0DD0FB681B6C042B07D1FB681B6822
:104FB0001A68FB681B6842F400721A60012335E02E
:104FC000FB681B681A68FB681B6842F480721A60F1
:104FD0007B6A00933B6A00224FF00111F86800F0F1
:104FE0002BF80346002B0DD0FB681B681B6803F4ED
:104FF0008073B3F5807F03D1FB684FF400721A64AD
:10500000032313E07B89DBB243F00103DAB2FB68D0
:105010001B681A617B6A3A6A0649F86800F086F8EC
:105020000346002B01D0012300E000231846183767
:10503000BD4680BD0200010080B584B000AFF860BD
:10504000B9603B601346FB7148E03B68B3F1FF3F3A
:1050500044D0FEF785FB0246BB69D31A3A689A42F0
:1050600002D33B68002B39D1BB681B0CDBB2012B90
:105070000DD1FB681B685B69DA43BB6813409BB2C8
:10508000002B0CBF01230023DBB21A460CE0FB68A7
:105090001B689B69DA43BB6813409BB2002B0CBFB3
:1050A00001230023DBB21A46FB799A4216D1FB6832
:1050B00000221A63FB68202283F83D20FB6800224F
:1050C00083F83E20FB681B6C43F02002FB681A64E7
:1050D000FB68002283F83C20012323E0BB681B0C03
:1050E000DBB2012B0DD1FB681B685B69DA43BB683F
:1050F00013409BB2002B0CBF01230023DBB21A46E6
:105100000CE0FB681B689B69DA43BB6813409BB2E9
:10511000002B0CBF01230023DBB21A46FB799A4215
:1051200093D0002318461037BD4680BD80B584B0AB
:1051300000AFF860B9607A603B6071E0FB681B68A3
:105140005B6903F48063B3F5806F23D1FB681B6850
:105150001A68FB681B6842F400721A60FB681B68DF
:105160006FF480625A61FB6800221A63FB68202298
:1051700083F83D20FB68002283F83E20FB681B6C0F
:1051800043F00402FB681A64FB68002283F83C20A9
:10519000012367E07B68B3F1FF3F41D0FEF7E0FAFF
:1051A00002463B68D31A7A689A4202D37B68002B86
:1051B00036D1BB681B0CDBB2012B0CD1FB681B6822
:1051C0005B69DA43BB6813409BB2002B14BF012319
:1051D0000023DBB20BE0FB681B689B69DA43BB680A
:1051E00013409BB2002B14BF01230023DBB2002B22
:1051F00016D0FB6800221A63FB68202283F83D204A
:10520000FB68002283F83E20FB681B6C43F0200201
:10521000FB681A64FB68002283F83C20012321E02C
:10522000BB681B0CDBB2012B0CD1FB681B685B69F4
:10523000DA43BB6813409BB2002B14BF0123002349
:10524000DBB20BE0FB681B689B69DA43BB68134069
:105250009BB2002B14BF01230023DBB2002B7FF491
:105260006DAF002318461037BD4680BD80B584B0B1
:1052700000AFF860B9607A6034E0F86800F0E3F8F5
:105280000346002B01D0012334E0BB68B3F1FF3F9C
:1052900028D0FEF765FA02467B68D31ABA689A42AC
:1052A00002D3BB68002B1DD1FB681B685B6903F050
:1052B0008003802B16D0FB6800221A63FB68202233
:1052C00083F83D20FB68002283F83E20FB681B6CBE
:1052D00043F02002FB681A64FB68002283F83C203C
:1052E000012307E0FB681B685B6903F08003802BE8
:1052F000C3D1002318461037BD4680BD80B584B0A9
:1053000000AFF860B9607A6034E0F86800F09BF8AC
:105310000346002B01D0012334E0BB68B3F1FF3F0B
:1053200028D0FEF71DFA02467B68D31ABA689A4263
:1053300002D3BB68002B1DD1FB681B685B6903F0BF
:105340000403042B16D0FB6800221A63FB6820229A
:1053500083F83D20FB68002283F83E20FB681B6C2D
:1053600043F02002FB681A64FB68002283F83C20AB
:10537000012307E0FB681B685B6903F00403042B4F
:10538000C3D1002318461037BD4680BD80B584B018
:1053900000AFF860B9607A6049E0FB681B685B6940
:1053A00003F01003102B19D1FB681B686FF010027B
:1053B0005A61FB6800221A63FB68202283F83D20B3
:1053C000FB68002283F83E20FB681A6CFB681A64B5
:1053D000FB68002283F83C20012330E0FEF7C0F98F
:1053E00002467B68D31ABA689A4202D3BB68002B84
:1053F0001DD1FB681B685B6903F04003402B16D08E
:10540000FB6800221A63FB68202283F83D20FB68BA
:10541000002283F83E20FB681B6C43F02002FB68EF
:105420001A64FB68002283F83C20012307E0FB6834
:105430001B685B6903F04003402BAED10023184684
:105440001037BD4680BD80B483B000AF78607B6804
:105450001B685B6903F48063B3F5806F1BD17B68C5
:105460001B686FF480625A617B6800221A637B6854
:10547000202283F83D207B68002283F83E207B6851
:105480001B6C43F004027B681A647B68002283F87B
:105490003C20012300E0002318460C37BD4680BCA9
:1054A0007047000080B586B000AF78607B68002B45
:1054B00001D101236CE27B681B6803F00103002B20
:1054C00000F08780924B5B6803F00C03042B0CD038
:1054D0008F4B5B6803F00C03082B12D18C4B5B687D
:1054E00003F48033B3F5803F0BD1894B1B6803F481
:1054F0000033002B6CD07B685B68002B68D10123E4
:1055000046E27B685B68B3F5803F06D1804B1B6841
:105510007F4A43F4803313602EE07B685B68002B86
:105520000CD17B4B1B687A4A23F480331360784B91
:105530001B68774A23F4802313601DE07B685B6857
:10554000B3F5A02F0CD1724B1B68714A43F4802332
:1055500013606F4B1B686E4A43F4803313600BE09B
:105560006B4B1B686A4A23F480331360684B1B68DB
:10557000674A23F4802313607B685B68002B13D099
:10558000FEF7EEF8386108E0FEF7EAF802463B69FC
:10559000D31A642B01D90323FAE15D4B1B6803F492
:1055A0000033002BF0D014E0FEF7DAF8386108E0A1
:1055B000FEF7D6F802463B69D31A642B01D90323C0
:1055C000E6E1534B1B6803F40033002BF0D100E0FD
:1055D00000BF7B681B6803F00203002B63D04C4BB9
:1055E0005B6803F00C03002B0BD0494B5B6803F0A6
:1055F0000C03082B1CD1464B5B6803F48033002B53
:1056000016D1434B1B6803F00203002B05D07B68C7
:105610001B69012B01D00123BAE13D4B1B6823F02C
:10562000F8027B685B69DB00394913430B603AE0A1
:105630007B681B69002B20D0364B01221A60FEF7D5
:105640008FF8386108E0FEF78BF802463B69D31A01
:10565000022B01D903239BE12D4B1B6803F00203AE
:10566000002BF0D02A4B1B6823F0F8027B685B69A3
:10567000DB00274913430B6015E0264B00221A601C
:10568000FEF76EF8386108E0FEF76AF802463B69FB
:10569000D31A022B01D903237AE11D4B1B6803F0B7
:1056A0000203002BF0D17B681B6803F00803002B7A
:1056B0003AD07B689B69002B19D0174B01221A60E6
:1056C000FEF74EF8386108E0FEF74AF802463B69FB
:1056D000D31A022B01D903235AE10D4B5B6A03F065
:1056E0000203002BF0D0012000F0CCFA1CE00A4BA2
:1056F00000221A60FEF734F838610FE0FEF730F848
:1057000002463B69D31A022B08D9032340E100BFAC
:105710000010024000004242800442429E4B5B6AFD
:1057200003F00203002BE9D17B681B6803F004033C
:10573000002B00F0A6800023FB75974BDB6903F07C
:105740008053002B0DD1944BDB69934A43F0805377
:10575000D361914BDB6903F08053BB60BB680123CD
:10576000FB758E4B1B6803F48073002B18D18B4B99
:105770001B688A4A43F480731360FDF7F1FF3861B8
:1057800008E0FDF7EDFF02463B69D31A642B01D90F
:105790000323FDE0814B1B6803F48073002BF0D0E2
:1057A0007B68DB68012B06D17B4B1B6A7A4A43F08E
:1057B000010313622DE07B68DB68002B0CD1764B74
:1057C0001B6A754A23F001031362734B1B6A724A0A
:1057D00023F0040313621CE07B68DB68052B0CD10B
:1057E0006D4B1B6A6C4A43F0040313626A4B1B6ADD
:1057F000694A43F0010313620BE0674B1B6A664A78
:1058000023F001031362644B1B6A634A23F0040311
:1058100013627B68DB68002B15D0FDF7A1FF3861B0
:105820000AE0FDF79DFF02463B69D31A41F2883238
:10583000934201D90323ABE0574B1B6A03F00203E9
:10584000002BEED014E0FDF78BFF38610AE0FDF786
:1058500087FF02463B69D31A41F28832934201D94D
:10586000032395E04C4B1B6A03F00203002BEED19F
:10587000FB7D012B05D1484BDB69474A23F0805360
:10588000D3617B68DB69002B00F08180424B5B6851
:1058900003F00C03082B61D07B68DB69022B46D137
:1058A0003F4B00221A60FDF75BFF386108E0FDF70F
:1058B00057FF02463B69D31A022B01D9032367E045
:1058C000354B1B6803F00073002BF0D17B681B6A1B
:1058D000B3F5803F08D1304B5B6823F400327B681E
:1058E0009B682D4913434B602B4B5B6823F4741268
:1058F0007B68196A7B685B6A0B43274913434B60DB
:10590000274B01221A60FDF72BFF386108E0FDF7F5
:1059100027FF02463B69D31A022B01D9032337E044
:105920001D4B1B6803F00073002BF0D02FE01C4BC5
:1059300000221A60FDF714FF386108E0FDF710FF40
:1059400002463B69D31A022B01D9032320E0124BF4
:105950001B6803F00073002BF0D118E07B68DB6953
:10596000012B01D1012313E00B4B5B68FB60FB684B
:1059700003F480327B681B6A9A4206D1FB6803F409
:1059800070127B685B6A9A4201D0012300E0002319
:1059900018461837BD4680BD001002400070004018
:1059A0006000424280B584B000AF786039607B68A7
:1059B000002B01D10123D0E06A4B1B6803F00703E1
:1059C0003A689A4210D9674B1B6823F00702654971
:1059D0003B6813430B60634B1B6803F007033A6893
:1059E0009A4201D00123B8E07B681B6803F00203F0
:1059F000002B20D07B681B6803F00403002B05D02C
:105A0000594B5B68584A43F4E06353607B681B68FA
:105A100003F00803002B05D0534B5B68524A43F454
:105A200060535360504B5B6823F0F0027B689B68C7
:105A30004D4913434B607B681B6803F00103002B47
:105A400040D07B685B68012B07D1474B1B6803F490
:105A50000033002B15D101237FE07B685B68022BAC
:105A600007D1414B1B6803F00073002B09D10123C0
:105A700073E03D4B1B6803F00203002B01D10123AF
:105A80006BE0394B5B6823F003027B685B68364947
:105A900013434B60FDF764FEF8600AE0FDF760FE1B
:105AA0000246FB68D31A41F28832934201D903239C
:105AB00053E02D4B5B6803F00C027B685B689B0036
:105AC0009A42EBD1274B1B6803F007033A689A42CE
:105AD00010D2244B1B6823F0070222493B68134372
